:020000040000FA
:1000000088590020D53900009B530100C1390000F8
:10001000C1390000C1390000C1390000C1390000F8
:10002000000000000000000000000000453B000050
:10003000C139000000000000D93A0000C1390000B9
:10004000CD3C0000CD3C0000CD3C0000CD3C00008C
:10005000CD3C0000CD3C0000CD3C0000CD3C00007C
:10006000CD3C0000CD3C0000CD3C0000CD3C00006C
:10007000CD3C0000CD3C0000CD3C0000CD3C00005C
:10008000CD3C0000CD3C0000CD3C0000CD3C00004C
:10009000CD3C0000CD3C0000CD3C0000CD3C00003C
:1000A000CD3C0000CD3C0000CD3C0000CD3C00002C
:1000B000CD3C0000CD3C0000CD3C0000CD3C00001C
:1000C000CD3C0000CD3C0000CD3C0000CD3C00000C
:1000D000CD3C0000CD3C0000CD3C0000CD3C0000FC
:1000E000CD3C0000CD3C0000CD3C0000CD3C0000EC
:1000F000CD3C0000CD3C0000CD3C0000CD3C0000DC
:10010000CD3C0000CD3C0000CD3C0000CD3C0000CB
:10011000CD3C0000CD3C0000CD3C0000CD3C0000BB
:10012000CD3C0000CD3C0000CD3C0000CD3C0000AB
:10013000CD3C0000CD3C0000CD3C0000CD3C00009B
:10014000CD3C0000CD3C0000CD3C0000CD3C00008B
:04015000CD3C0000A2
:100158002DE9F14F03F11C0402EB840C4FEA930BD9
:100168008A68CB680868496800F046F93CE9F000FD
:100178006040694072407B400BF1060E4EE083EA16
:10018800134480EA134582EA134746BA96EA344490
:10019800604000F00F1684EA063420F00F1684EA57
:1001A800161054BA94EA0106724002F00F1486EA57
:1001B800043622F00F1486EA14124CBA65406940DE
:1001C80001F00F1485EA043521F00F1485EA1411A3
:1001D8005CBA67407B4003F00F1487EA043723F0CA
:1001E8000F1487EA141344BA44404DBA4D4056BA26
:1001F80056405FBA5F4087EA174886EA174B84EA99
:1002080017464FEA38488BEA1B4485EA1B4788EAB9
:100218001B4580EA3440694072407B4000F07034EE
:1002280000F0803500F00F3040EA440040EAD50085
:1002380080EA900404F0332480EA8400604001F0EE
:10024800703401F0803501F00F3141EA440141EA90
:10025800D50181EA910404F0332481EA84016140E4
:1002680002F0703402F0803502F00F3242EA4402A4
:1002780042EAD50282EA920404F0332482EA840234
:10028800624003F0703403F0803503F00F3343EA23
:10029800440343EAD50383EA930404F0332483EA4E
:1002A80084036340C943DB4381EA000483EA0446CC
:1002B80086EA020183EA014382EA334583EA14436A
:1002C8005C4084EA00077FEA040A8AEA024A8AEA6A
:1002D800010B87EA11488AEA374A80EA060181EA6F
:1002E8001A418AEA030A04EA0A00454088EA040730
:1002F80007EA0B0041408AEA0B0608EA060084EA8E
:1003080034428AEA3A4602EA0603584045404140E8
:1003180087EA37438BEA3B4003EA000985EA090587
:1003280082EA0309464006EA0906714085EA0100A7
:1003380005EA3546464006EA314181EA304181EA1C
:10034800364606EA304686EA354634400F4086EAA5
:10035800010508EA050886EA3640024088EA0208EC
:1003680081EA314213405C4080EA020309EA03094A
:1003780087EA0907674088EA040806EA0A0601EAE4
:100388000B018AEA0B0425408AEA3A44204045409A
:100398008BEA3B4B02EA0B02564084EA0B042340EB
:1003A80059406E40694087EA364080EA384080EA22
:1003B800060380EA104481EA134585EA344585EA54
:1003C80017427D4082EA354180EA05403CE9F00069
:1003D8006040694072407B40BEF1010E3FF6CFAEEF
:1003E80020BC00F05FF828606960AA60EB60BDE897
:1003F800F08F00BF00F000BA80EA101404F0F01487
:1004080080EA0410604081EA111404F0F01481EAD3
:100418000411614082EA121404F0F01482EA041212
:10042800624083EA131404F0F01483EA041363406F
:1004380080EA102404F47F4480EA0420604081EAC2
:10044800112404F47F4481EA0421614082EA1224E1
:1004580004F47F4482EA0422624083EA132404F409
:100468007F4483EA0423634081EA500404F055344E
:1004780080EA4400614083EA520404F0553482EA79
:100488004402634082EA900404F0333480EA840032
:10049800624083EA910404F0333481EA84016340C2
:1004A800704700BF82EA900404F0333480EA840085
:1004B800624083EA910404F0333481EA84016340A2
:1004C80081EA500404F0553480EA4400614083EA2C
:1004D800520404F0553482EA4402634080EA10244E
:1004E80004F47F4480EA0420604081EA112404F483
:1004F8007F4481EA0421614082EA122404F47F44A3
:1005080082EA0422624083EA132404F47F4483EAE3
:100518000423634080EA101404F0F01480EA041005
:10052800604081EA111404F0F01481EA041161407A
:1005380082EA121404F0F01482EA0412624083EA98
:10054800131404F0F01483EA04136340704700BFE7
:100558002DE9F14F94464FEA930B8A68CB680868F7
:100568004968FFF749FF0BF1060E33E083EA1344AD
:1005780080EA134582EA134746BA96EA3444604053
:1005880000F00F1684EA063420F00F1684EA1610DD
:1005980054BA94EA0106724002F00F1486EA04364F
:1005A80022F00F1486EA14124CBA6540694001F033
:1005B8000F1485EA043521F00F1485EA14115CBA8A
:1005C80067407B4003F00F1487EA043723F00F14C9
:1005D80087EA1413BCE8F0006040694072407B4031
:1005E80000F0E03400F0103500F00F3040EA54001D
:1005F80040EAC50080EA900404F0332480EA8400CD
:10060800604001F0E03401F0103501F00F3141EAAB
:10061800540141EAC50181EA910404F0332481EAD6
:100628008401614002F0E03402F0103502F00F322C
:1006380042EA540242EAC50282EA920404F03324F0
:1006480082EA8402624003F0E03403F0103503F0DC
:100658000F3343EA540343EAC50383EA930404F0DF
:10066800332483EA8403634081EA324787EA1345E7
:1006780081EA354690EA060484EA034B82EA1B4283
:1006880080EA044484EA054483EA144A85EA144467
:100698008BEA044B84EA374481EA0B4181EA16412C
:1006A80004EA0A00454082EA04082BEA08004140AF
:1006B8008AEA0B0602EA060084EA34438AEA3A46E2
:1006C80003EA060778404540414088EA38478BEA04
:1006D8003B4007EA000985EA090583EA070946401D
:1006E80006EA0906714085EA010005EA35464640F2
:1006F80006EA314181EA304181EA364606EA304667
:1007080086EA3546344008EA010886EA01052A40A7
:1007180086EA364003405A4081EA31431F407C4014
:1007280080EA030709EA070988EA0908544088EAC1
:10073800020806EA0A0601EA0B018AEA0B021540DA
:100748008AEA3A42104045408BEA3B4003405E400B
:100758004240174079404D404E40E443F64386EA14
:1007680018435D4085EA054083EA134386EA03415E
:1007780083EA384284EA114383EA04435FEA334355
:10078800BEF1010E3FF6F2AE1ED4BCE8F0006040A8
:10079800694072407B4020BCFFF784FE2860696096
:1007A800AA60EB60BDE8F08F2DE9E0414FF2F0025E
:1007B80080EA1031114080EA01304840410882083F
:1007C800C3084FF0000E4FE700F0113001F011316F
:1007D80002F0113203F0113340EA410040EA82008E
:1007E80040EAC3004FF2F00280EA1031114080EA7B
:1007F80001304840BDE8E0812DE9F04F02F11C05C9
:100808000646074600EB850851F8040B043A46F8FB
:10081800040BF9D14FF0010CFFF7C6FF5FEA302057
:1008280080EA0C001ECF41404A4053405C401EC63F
:100838002000464517D04FEA4C0C1CF4807F18BFA7
:10084800ACF1E50C2C2DE7D03C2D06D1FFF7ACFF21
:1008580006CF41404A4006C6100006CF41404A40F4
:1008680006C61000D8E736E90F00FFF7C5FD043DBE
:1008780086E80F00F7D1BDE8F08F00BF30B44FF025
:10088800000310F8014B11F8015B013A84EA0504F2
:1008980043EA0403F5D1A3F101034FEAD37030BC56
:1008A800704700BF4FF0000310F8012B013943EAED
:1008B8000203F9D1A3F101034FEAD370704700BFD7
:1008C80030B411F8014B12F8015B6C4000F8014B91
:1008D800013BF6D130BC70472DE9F04F90E8F00F9E
:1008E80000F140004FF0040E59E0F0B4826BC36B86
:1008F80004680525242687593C444FEA724787EA4D
:10090800F24787EA92273C4442684FEAF21787EA9F
:10091800B24787EAD2073C4440F8044B032D08BF8E
:100928006FF01B0687593A444FEA734787EAF34743
:1009380087EA93273A4443684FEAF31787EAB347AD
:1009480087EAD3073A4440F8042B87593B444FEAD7
:10095800744787EAF44787EA94273B4444684FEA98
:10096800F41787EAB44787EAD4073B4440F8043BC6
:10097800013DC0D1A0F13C00076A3C444FEA7247F0
:1009880087EAF24787EA92273C4402684FEAF2175F
:1009980087EAB24787EAD2073C44C463F0BC4FF009
:1009A800020288EA781C8CEAF84C0BEBBC1C8AEA39
:1009B800090303EA080383EA0A039C4450F8043B4A
:1009C8009C4451F8043B9C44674444EA050B0BEAF9
:1009D800060B04EA05034BEA030BE34484EAF42319
:1009E80083EA34530BEBB30B87EA771C8CEAF74C9A
:1009F8000AEBBC1C89EA080303EA070383EA090334
:100A08009C4450F8043B9C4451F8043B9C44664485
:100A18004BEA040A0AEA050A0BEA04034AEA030A4B
:100A2800E2448BEAFB2383EA3B530AEBB30A86EAE8
:100A3800761C8CEAF64C09EBBC1C88EA070303EA2F
:100A4800060383EA08039C4450F8043B9C4451F88D
:100A5800043B9C4465444AEA0B0909EA04090AEA8A
:100A68000B0349EA0309E1448AEAFA2383EA3A5381
:100A780009EBB30985EA751C8CEAF54C08EBBC1C3C
:100A880087EA060303EA050383EA07039C4450F850
:100A9800043B9C4451F8043B9C44644449EA0A08DA
:100AA80008EA0B0809EA0A0348EA0308E04489EA65
:100AB800F92383EA395308EBB30884EA741C8CEAF7
:100AC800F44C07EBBC1C86EA050303EA040383EA3B
:100AD80006039C4450F8043B9C4451F8043B9C4456
:100AE800E34448EA090707EA0A0708EA090347EA64
:100AF8000307674488EAF82383EA385307EBB30708
:100B08008BEA7B1C8CEAFB4C06EBBC1C85EA0403D5
:100B180003EA0B0383EA05039C4450F8043B9C4416
:100B280051F8043B9C44E24447EA080606EA0906F1
:100B380007EA080346EA0306664487EAF72383EAD6
:100B4800375306EBB3068AEA7A1C8CEAFA4C05EBB3
:100B5800BC1C84EA0B0303EA0A0383EA04039C44EB
:100B680050F8043B9C4451F8043B9C44E14446EA59
:100B7800070505EA080506EA070345EA030565448B
:100B880086EAF62383EA365305EBB30589EA791C2E
:100B98008CEAF94C04EBBC1C8BEA0A0303EA090350
:100BA80083EA0B039C4450F8043B9C4451F8043BF3
:100BB8009C44E04445EA060404EA070405EA0603FF
:100BC80044EA0304644485EAF52383EA355304EBD5
:100BD800B304013A7FF4E5AEA0F14000BEF1010E86
:100BE8007FF483AEA0F1400C9CE80F00001949196E
:100BF8009219DB19ACE80F009CE80F004044494407
:100C080052445B44ACE80F00BDE8F08F7BB972B981
:100C18000029BEBF00204FF0004106E008BF0028B1
:100C28001CBF6FF000414FF0FF3000F057B8ADF136
:100C3800080C6DE904CE002909DB002B1ADB00F053
:100C480069F8DDF804E0DDE9022304B070474042AA
:100C580061EB4101002B1BDB00F05CF8DDF804E0E0
:100C6800DDE9022304B0404261EB4101524263EBEB
:100C780043037047524263EB430300F04BF8DDF83F
:100C880004E0DDE9022304B0404261EB4101704712
:100C9800524263EB430300F03DF8DDF804E0DDE980
:100CA800022304B0524263EB4303704753B94AB975
:100CB800002908BF00281CBF4FF0FF314FF0FF305C
:100CC80000F00CB8ADF1080C6DE904CE00F022F884
:100CD800DDF804E0DDE9022304B07047704700BF87
:100CE80010F8012B11F8013B012A28BF9A42F7D0CE
:100CF800D01A7047034611F8012B03F8012B002A7C
:100D0800F9D17047034613F8012B002AFBD1181AB2
:100D1800013870472DE9F04786468C460846089EFC
:100D2800154674461946002B40F0C1808542B2FA38
:100D380082F245D94AB1C2F1200300FA02FC95407B
:100D480094402EFA03F343EA0C0C4FEA154EA8B26E
:100D5800230CBCFBFEF80EFB18CC08FB00F943EA99
:100D68000C43994528D9EB1808F1FF3704D2994567
:100D780002D9A8F102072B44A3EB0903A4B2B3FBE1
:100D8800FEFC0EFB1C330CFB00F044EA0344A042BB
:100D980014D92C190CF1FF3304D2A04202D9ACF1BA
:100DA80002032C44241A43EA07401EB1D44000230E
:100DB80034607360BDE8F0874746DDE76346F1E7D6
:100DC80092BB431B01214FEA154EAFB2200CB3FB77
:100DD800FEFC0EFB1C330CFB07F840EA0343984566
:100DE80061D9EB180CF1FF3004D2984502D9ACF167
:100DF80002002B44A3EB0803A4B2B3FBFEFC0EFBDA
:100E08001C330CFB07F744EA0344A7424DD92C19BD
:100E18000CF1FF3304D2A74202D9ACF102032C44EF
:100E2800E41B43EA0040C0E7C2F120039540944028
:100E380020FA03F12EFA03F34FEA154E9040AFB2B1
:100E48000343B1FBFEFC0EFB1C10190C0CFB07F84E
:100E580041EA0041884522D969180CF1FF3004D2D3
:100E6800884502D9ACF102002944A1EB08019BB2E4
:100E7800B1FBFEFC0EFB1C110CFB07F743EA014318
:100E88009F420ED9EB180CF1FF3104D29F4202D9D0
:100E9800ACF102012B44DB1B41EA004193E76046B9
:100EA800E3E76146F7E76046A4E76346B8E78342AD
:100EB80006D916B9002108467CE7C6E900E0F9E73B
:100EC800B3FA83F78FB9834201D3724508D8BEEBD2
:100ED800020460EB030301209C461EB9002169E768
:100EE8003846FAE7C6E9004CF8E7C7F1200CBB40E2
:100EF8000EFA07F522FA0CF42EFA0CF1BA401C434C
:100F080020FA0CF3B8404FEA144901431FFA84FE53
:100F1800B3FBF9F809FB18300B0C08FB0EFA43EA8F
:100F280000439A4540D9E31808F1FF3004D29A45A6
:100F380002D9A8F102002344A3EB0A0389B2B3FB48
:100F4800F9F809FB183308FB0EFE41EA03418E4508
:100F58002CD9611808F1FF3304D28E4502D9A8F1C3
:100F68000203214443EA0040A1EB0E01A0FB0298D2
:100F78004145CE46434602D306D14D4504D20138F9
:100F8800B9EB020E68EB0403002EA7D0B5EB0E02F6
:100F980061EB030101FA0CFC22FA07F3F9404CEA71
:100FA8000303C6E9003199E74046C5E74346D9E758
:100FB8002DE9F04F8FB0002002AF04F06BFE04461D
:100FC80088B10346944A0121944814F019F9002C79
:100FD80027DA934A0121914812F0D3FF00203437D1
:100FE800BD46BDE8F08F03218E4A8C4812F0C9FF38
:100FF8008D4802F0F7F8044610B18C4A0346E2E740
:101008008B4806F06FFB234602228A498A480094DF
:1010180005F096FC034668B10121884A7F4814F020
:10102800EFF8DFF81C92D9F8000017F006F838B985
:10103800844ACFE70321844A784812F0A2FFF0E7F8
:10104800D9F80C0018B116F0F8FF0028F0D07F4E40
:10105800304616F0F2FF30B901217D4A6F4812F090
:1010680090FF7C4AB6E7B36800217B6030465B6836
:1010780007F128029847031E05DA0121764A6748D6
:1010880014F0BEF8EDE74FF4FA73D7E90A4AA4FB67
:1010980003B503FB0A555EA3D3E900234FF0FF38DD
:1010A80029465846FFF702FE6C4BD84573EB0505F9
:1010B800386002D26FF08503DFE7FA23A4FB0354FC
:1010C80003FB0A4452A3D3E9002328462146FFF72D
:1010D800EDFD624AA845A2410346EBD33A68824235
:1010E80002D26FF01503C8E7002200927A68002147
:1010F800146830463A68A047044690B10121034677
:10110800554A464814F07CF8002CAADB40F6CD403E
:10111800002112F057FF00F0E7F9002807DA504ADB
:1011280058E703214F4A3D4812F02BFFEEE703240E
:101138008621012000F086F92120002112F042FFCB
:10114800D821032000F07EF940F6CD40002112F0AE
:1011580039FF0021052000F075F92120002112F047
:1011680031FF414B00259A781988B3F80330BA72D9
:10117800BB8107F108033B6107F10C03C7E906349B
:1011880007F110033B62012307F11802C7E90A239C
:10119800D9F800003981BD737C617B62836807F1EF
:1011A80020021E68314907F12803B0476E468AB00D
:1011B80097F80CC0797BBB7B02AA53620623DFF841
:1011C800B0E0C2E907C1C2E905E042F8103F4FF4B8
:1011D80043512B46114801F015FDA420B5460021C6
:1011E80012F0F0FE2146234A0C4812F0CAFE0820ED
:1011F80000F062F92120002112F0E4FE102000F036
:101208005BF94FF0FF304FF0FF3112F0DBFEF8E7EB
:1012180000CA9A3B000000006CA401006498010019
:1012280003A501008BA40100B4010020A1A40100C2
:101238009C010020A899010088010020BDA401009C
:101248007001002019A50100E2A40100D494010056
:1012580027A501007DA501003CA50100FFC99A3B17
:1012680094A501004FA50100889901007401002090
:10127800A5A50100EDA5010013460321014A024876
:1012880013F0BEBF98A301006498010001480DF057
:1012980087B800BF681700200321024A024812F0ED
:1012A80070BE00BFAEA3010064980100084B1A6924
:1012B8001268120548BF80F0010028B19B68DB68FE
:1012C8004FF40061024818479B681B69F8E700BFA4
:1012D8003494010003460121014A024813F090BFEB
:1012E800B8A301006498010008B521B1BDE8084021
:1012F8000846FFF7EFBF14F0ADFC044B032118605C
:10130800034A0448BDE8084012F03BBE8417002099
:10131800D3A30100649801000B4610B5064C07489A
:101328000321074A13F06CFF206818B105F0A4FEEA
:101338000023236010BD00BF8417002064980100BB
:10134800DDA3010030B50024A1B0214617220BA867
:101358000A9417F043FF2146172212A8119417F098
:101368003DFF0AAB02931B23012411AACDE90423F4
:101378002B49039302AB069304ABCDE9083451F82B
:10138800040B0794836806AA1D6808ABA847031EC8
:1013980006DA244A2146244813F032FF21B030BD32
:1013A8009DF848309DF847209DF849101B0243EAF4
:1013B800024319431D481B0248BF41F07F410023E7
:1013C80081FB00011A4AFFF721FC1A4B04461868F2
:1013D80038B104F30F03022218A9ADF8603001F008
:1013E8000DFF4FF47A7294FBF2F102FB1142002CCC
:1013F80082EAE273A3EBE2730ADA49B920210E4AC2
:1014080018A812F021FB0D4818A913F0E4F8C5E755
:1014180000930B4A0B4618A8202112F015FBF2E79F
:1014280070010020F6A3010064980100801A0600EC
:10143800FFFF7F008417002009A4010025B30100E5
:1014480017A401002DE9F04140F0400388B00327BC
:101458004FF001088DF80C30002303AA0E468DF8D2
:101468000E101149049204AA05468DF80D3051F862
:10147800040B05970692CDF81C808268146806AAAA
:10148800A047041E0948B9BF2B4641463346394692
:10149800B5BF074A074A0094009513F0BBFE2046E3
:1014A80008B0BDE8F08100BF700100206498010019
:1014B80025A4010044A4010010B586B00DF107036E
:1014C80002930123074902AA8DF80700CDE90423F6
:1014D80051F8040B0393836804AA1C680023A047EF
:1014E80006B010BD7001002070B52E492E4816F0C8
:1014F800E0FF2E4C204616F0A0FD10B94FF0FF304B
:1015080070BD204616F099FD0028F7D04FF4B011B1
:10151800274812F038FD4FF48031264812F033FD89
:10152800A568AE696EB123694FF0A0721B680A21E5
:1015380013F4806F14BF4FF000734FF080632046A0
:10154800B0471D491D4B4B604FF480638B60EB69BE
:1015580013B1012215489847194A0321194812F076
:1015680010FD0120FFF7A2FE0021422012F02AFD03
:101578000020FFF79BFE002141F2343012F022FDDB
:101588000220FFF799FF0021422012F01BFD1120D5
:10159800FFF792FF4FF4A470002112F013FD002012
:1015A800AEE700BF4D130000681700203494010017
:1015B800A099010098990100781700209512000061
:1015C8005FA40100649801002DE9F04F91B00093E9
:1015D80002F004030293C2F3C203013384070546F1
:1015E8000E46DDF868800392059340F0BB81041D28
:1015F80030B1072909D86FF01B0011B0BDE8F08F92
:1016080001F007063444C6F10806009B4FF00009B4
:101618004FF0040A591E4FF0FF334F460193CB4653
:101628005346CDF810900DB1009A22600598002815
:1016380000F3E8809848009A824203D39748824290
:10164800C0F0E080039AA4EB050E92074FEA9E00D3
:1016580000F103810F2F00F2B180002D00F0058109
:1016680007F140020DEB020C019A0CF8200C0CF863
:10167800102C049801300490E7E07A285DD84B28B4
:101688000ED8472859D829282DD8252852D054D8DB
:1016980020287AD02338D0F1000B4BEB000B74E0F4
:1016A8004C382E2849D8DFE800F0704848484848A8
:1016B8004848484848484B4848484848484848598E
:1016C800484B4B595959704B6D487048184B18483E
:1016D80048827F4B48484B487F0000204FF0000B62
:1016E8004FF0040A38E001222A38C0B202FA00F0AA
:1016F80010EA0E0F49D110F0625C2FD110EA020BEC
:1017080043D06046013C5444B4FBFAF40AFB04F4A9
:10171800002D61D0A3EB050CA444B4453FF66BAF94
:10172800002868D1042B47D158F8043B23600423D0
:1017380004342AE0019A013A01924FF0000B24E0A8
:1017480011F8010C6C2834D1002011F8023C8346B2
:101758006C2BC5D14FF0080A5346D3E708F10708A8
:1017680028F00708073424F00704F8E802AB35B17D
:1017780006982044B0423FF63EAFC4E900AB4FF0B4
:10178800000B08344FF0080A534611F8010F0028DF
:1017980078D0BBF1000F7FF470AF2528F5D14FF05A
:1017A800010B019B013301934FF0040AECE7584603
:1017B80094E700208346A5E7082B02D06FF01500B8
:1017C8001BE708F1070828F00708F8E80223C4E92E
:1017D800002308230834D8E768B9042B02D108F19C
:1017E8000408A4E7082BE9D108F1070828F007083E
:1017F80008F10808EDE7059A013A059258F8042B14
:10180800009210E7039A900720D54FF0010CA4EB43
:10181800050E4FEA9E00BEF5007FCFD20F2FCDD820
:10182800F5B107F140020DEB020E019AC0B20EF8B5
:10183800200C0EF8102CBCF1000F3FF41AAF60F02A
:101848007F000EF8200C09F101090137C5F10802E3
:101858004FF6DA7E0434069297E74FF0000CDAE789
:10186800BCF1000F01D00136EFE7029802360028DC
:10187800EBD10098CDE90631FFF744FADDE90631EE
:101888000644E2E7631BB3F5806F97D245B9A6F12A
:101898000804E018B1E600BF4093010014CC010031
:1018A800029A9B0828602B709DF81030C2B1EB702B
:1018B80085F80290B9F1000F05D0002208A8C5F1FB
:1018C800010C97420ED14FF0000AC5F101030DF14A
:1018D800200801930DF1300B574512D1601B8CE69F
:1018E8006B70E5E710F8013B190608D50CEB040E00
:1018F800B64503F07F033FF67EAE04F8013B0132A4
:10190800DFE7B9F1000F03D098F90020002A17DBB0
:10191800029BD3B11AF80B2004F8012B0022019B7B
:1019280018191044B0423FF666AE98F800000099C6
:1019380004F8010B2046039217F029FC039A14447B
:101948000AF1010A08F10108C6E798F8002055F8DD
:1019580022300093029B009845F82230FFF7D2F915
:10196800421CDCE76FF00D0047E600BF2DE9F04FA1
:1019780097B000AFD7F880B03B62CBF3C003044602
:10198800894690F802A0FA62BB6141B945780078AF
:101998000AEB800020444D4517D8A0EB0409E378F2
:1019A800FB61BAF1000F02D01BF0010F16D1FB69E1
:1019B80053BBFB6A1BB1494620463A6A98474D46D5
:1019C80028465C37BD46BDE8F08F461C3046FFF719
:1019D80099F90130304409F10109DCE7626823789C
:1019E8007A62FA6A9900796104EB8301002A40F06F
:1019F80001810E464FF000084D4601EB0A094E459D
:101A08004CD101EB0A0610E01BF0020FD1D023786D
:101A18009A007A61626804EB83017A62FA6A002AA2
:101A280077D14D46904601EB0A061BF0050F0CBF17
:101A380002230123FB62FB6906EB430A0BF0020356
:101A4800BB625645BCD016F8021B16F8013C54F888
:101A58002390994B994502D3984B994536D3BB6946
:101A6800002B40D0786A12F08DFD00283BD0E94663
:101A78008AB06A46924B53617B6AC2E906314FF4D9
:101A8800007313848F4B42F8103F00234FF4125118
:101A98008D4801F0B7F8023DCD46D2E716F8013B74
:101AA800F96254F82300FFF72DF9D7F88430F96A62
:101AB80001304BB1D7F8883098453EBFD7F884300D
:101AC80023F8180008F10108054498E7BB6923B119
:101AD800786A12F057FD0028C9D11BF0010F05D113
:101AE800FB6AED1AADE7BB6A002BAAD04846FFF7A0
:101AF80009F9D7F8843053B1D7F8883098453FBFF3
:101B0800D7F88420431C22F8183008F1010805444E
:101B180097E7BAF1000F73D01BF0040673D0D046D4
:101B2800002607F1480052463B61B96217F02FFBC7
:101B3800B96A3B6901EB0A02BA62FA69F9695200AB
:101B4800FA60BA6A02EB41023A610BF00202BA602B
:101B58003A69B96A8A4258D162781BF0020F18BFF5
:101B680000217A6208BF4FEA5801B2181BF0010F32
:101B7800D2B240F09F801BF0040F14BF40460020F3
:101B8800BB616270A070E17020463A6A7969FB6AAD
:101B98009847051EFFF614AFBB69414623707B6A60
:101BA8003A6A6370FB6984F802A0E37007F14800A1
:101BB800FB6A9847B0F10008C0F2BA807B69A9EBCC
:101BC8000A01C91AFB683A6AC91AD7E90A03984789
:101BD8000028C0F2AF804FF0000BA84408EB0005C6
:101BE80007F1380AB34571D300213A6A0846FB6AFF
:101BF8009847E5E656464FF0000807F1380092E7A7
:101C08005646D04696E7B04694E7BA6A12F8021BE1
:101C180012F8015CBA6254F82500274A904202D3B0
:101C2800264A90421ED3BA6932B1786A7B6012F0B4
:101C3800A9FC7B6800288BD1BA6802BB08F128028E
:101C480007F1300C08F10100944407F1580208F13B
:101C5800020852FA80F00CF8101C5FFA88F800F8B5
:101C6800105C75E7BA693AB1786A7B6012F08AFC51
:101C78007B6800287FF46CAF1BF0010F09D006F1D8
:101C8800280207F13000711C161806F8205CCEB245
:101C98005EE71BF0040F3FF45BAF08F1280207F181
:101CA800300008F1010102EB000808F8105C5FFA47
:101CB80081F84DE7002063E74093010014CC010050
:101CC8001DA6010004000001549801001BF80A3009
:101CD80054F8239087F83730D7F884302BB3D7F8E7
:101CE80088309B4521D2D7F8843033F81B800121F6
:101CF8003A6AFB6A07F13700984700281ADB05445F
:101D0800B8F1000F06D14846FEF7FCFF00F10108C4
:101D18001FFA88F8414648463A6AFB6A98470028FD
:101D280008DB05440BF1010B5CE74FF00008DEE728
:101D3800454645E6054643E6014B1860704700BF37
:101D4800C001002080B505460E46174698460CF09F
:101D58001BFF034617F0E6FA0446DFF818904246E0
:101D680049F8003039463046A84754F8090001F0D0
:101D780099FE00BF080000002DE9F047058B0446D6
:101D88002807904611D4022905F0070540F0CC80B9
:101D9800204612F09DFE78B10138218B042811D815
:101DA800DFE800F0C2106D85950001290CBF45F0F1
:101DB800100545F02005258388F31188BFF36F8F40
:101DC800BDE8F08701F0070AAA4500F0A5800027C2
:101DD800B9463E46A368002B00F0BC8041F00801DC
:101DE800218388F31188BFF36F8FA168002900F061
:101DF800BA800D68002900F0B68033465246204666
:101E0800D1F80480C047002D76D02B6829461D469E
:101E1800F0E701F007035A1F012A1BD8002221F01E
:101E28000701062B276889B2C4E9002209D13B467D
:101E380003E0628B013262831B68002BF9D141F009
:101E480002012046218312F043FE00287AD041F097
:101E5800200176E0042B0AD121F0070189B220463F
:101E6800218312F035FE10B141F020012183218B2E
:101E780001F0070AAA454FD00027B946AAE7236907
:101E880021F0070141F00601062DD3F800902183C7
:101E98002DD1B9F1000F3FD041F00801218388F31B
:101EA8001188BFF36F8F20463949C84729E021F0D0
:101EB8000701236941F0040189B2042DD3F8049085
:101EC8002183E6D000274FF0040A3E4682E721F03E
:101ED8000701236941F0050189B2052DD3F808905F
:101EE8002183D6D000274FF0050A3E4672E7002727
:101EF8004FF0060A3E466DE72B4687E7B9F1000F1B
:101F0800D1D1EFF31188202383F31288BFF36F8FA9
:101F1800238B23F008032383258BEA062ED525F08F
:101F28001003238305F007056669218B002EBFF691
:101F380070AF00232768C4E9003321F0070141F09E
:101F480001012183218B4FF0000901F0070AAA45FE
:101F58007FF440AF002F9CD041F00801218388F323
:101F68001188BFF36F8F002FC8D03D6839463346BC
:101F78005246204612F0D8FD2F46F4E7AB067FF50F
:101F88001BAF25F02003238305F0070500E700BFFA
:101F98005D4B010010B530B90B480C4912F0A3FE97
:101FA8006FF0150010BD836833B90748084912F06F
:101FB8009AFE6FF00400F5E71B6813B1BDE8104006
:101FC80018471846EEE700BF6C980100D1A601003B
:101FD800E2A6010010B530B90B480C4912F083FE97
:101FE8006FF0150010BD836833B90748084912F02F
:101FF8007AFE6FF00400F5E75B6813B1BDE81040A6
:1020080018471846EEE700BF6C980100D1A60100FA
:10201800E2A6010070B508B101B132B90B480C490C
:1020280012F061FE6FF0150070BD84680CB1E568B0
:1020380035B90648074912F056FE6FF00400F3E779
:1020480041F8040BE368BDE8704018476C9801003C
:1020580000A70100E2A6010010B5044630B91048F7
:10206800104912F040FE6FF0150010BD006830B93D
:102078000B480D4912F037FE6FF00100F5E7836851
:102088000BB11B6933B90648084912F02CFE6FF0F2
:102098000400EAE7616898470028E6D12060E4E791
:1020A8006C9801002CA701003DA70100E2A60100E1
:1020B80070B51346044630B91048114912F013FEA2
:1020C8006FF0150070BD006830B90C480D4912F06A
:1020D8000AFE6FF00100F5E782680AB1956835B924
:1020E8000648094912F0FFFD6FF00400EAE70A46C6
:1020F800AC466168BDE87040604700BF6C9801005D
:102108002CA701003DA70100E2A60100034A1368BD
:102118000BB9526813600020704700BFC40100204B
:1021280030B50C460E4985B00291D0F8D411054659
:10213800CDE9003100F1F0014FF0FF3320460BF0FC
:10214800A7F950B9012384F86C30D5F8D03123B100
:10215800204605B0BDE83040184705B030BD00BF87
:10216800E74D010038B50C461146054612F039FE18
:10217800034638B92846044912F033FE03460020C6
:10218800236038BD0120FBE7C0CA01002DE9F04FEC
:1021980001238146056946688FB005F56B77D7E856
:1021A800EF2F002A03D1C7E8E13F0029F7D10CBF80
:1021B8001A46002240F0BB80B368B16A05F5F8788A
:1021C8001C1F104612F094FE844279D8013A00F0A0
:1021D800A880B2FA82F24FF00044D44072682046D8
:1021E800073222F00302C5F83C22B16A12F080FEE1
:1021F800C5F84002B36A40466343033323F0030340
:1022080002EB4302230103EB4403093323F00303E6
:1022180003EBC403C5F834221A440832C5F8302247
:102228007368C5F83842C5F82C32424BC5E9AD632E
:10223800316800F0F1F9044600283FD1D9F810B010
:10224800D9F804A0D9F800300BF534790590049337
:102258004846DAE90734012B08BF103C16F070F93C
:10226800DAF82400344904AB009301EB80212346BB
:1022780048464FF480620CF099F82021DAF82430AF
:102288002E4A06A811F0E0FB06A948460CF06CF9A6
:102298002B490BF5307016F00CF9DAE90501836863
:1022A8005C684CB15B46274AA047044630B9DAE976
:1022B800050183681B692BB96FF05704002129E0D9
:1022C80001327EE70122984704460028F6D11E4BCA
:1022D8002846C5F8D0311D4BC5F8D4311C4B0393A3
:1022E800D5F840320293D5F83C32CDE9008305F5A4
:1022F8001173B26AD5F8A81300F056F904460028FD
:10230800DCD105F1F0000BF069F90028C5F8B0033D
:102318000ADB0221384612F098FD20460FB0BDE8CE
:10232800F08F6FF00B04C9E76FF01504C6E76FF084
:102338007704F2E73D4E0100E034002062A7010077
:10234800234E0100174E01005D230000CF4F01000E
:10235800834E010013B5044640B100230122CDE9A4
:102368000032074BD0E909120BF066F8236F1B689F
:1023780023B1606F02B0BDE81040184702B010BD2D
:10238800C0CA010013B504460846216901F56B71FE
:10239800D1E8AF1F022910D193B1A0B10121CDE935
:1023A80000311346D0E909120BF046F8074B984262
:1023B80008BF6FF00B0002B010BD6FF00F00FAE716
:1023C8006FF04C00F7E76FF00100F4E72EF8FFFF1D
:1023D8002DE9F34789461546066906F56B73D3E878
:1023E800AF3F022B64D1136823B96FF0150002B018
:1023F800BDE8F0871B78002BF7D0D6F8A8A3BAF170
:10240800000F36D106F5EC774FF0FF324FF0FF336F
:1024180038460BF0C7FC30462A6801A9FFF7A2FE30
:10242800019C80461CB9384612F00DFDDDE705F128
:10243800080323676B6984F86CA06367646460B100
:10244800384612F000FD21463046A36E2A68FFF791
:1024580067FE0020C9F80040C9E71F22296804F177
:10246800480016F0E5FE384684F8678012F0EBFC69
:10247800EFE73046104912F0B4FC04460028B4D007
:10248800002705F1080303676B6980F86C704367E0
:1024980040641F222968483016F0CAFE22460121EE
:1024A800304684F8677000F061F80028D1D09CE7C6
:1024B8006FF00F009BE700BFC0CA010010B50C46C3
:1024C800006900F56B73D3E8AF3F022B0FD189B1D8
:1024D8000A4900F5307016F018F8204615F0D7FABA
:1024E80078220021204616F079FE002010BD6FF0FA
:1024F8000F00FBE76FF00100F8E700BF8817002026
:102508002DE9F04F05460E4690460027D0F8C4A0A6
:1025180085B0AAF5BE7421463046FEF7E1FBE0B966
:10252800114BA4F1480B0293DAF810303246CDE98A
:10253800008329464FF0FF335846AAF5E2790AF09E
:10254800A7FF60B97823012203FB079383F86C2067
:10255800DAF80C300BB158469847783417B105B003
:10256800BDE8F08F0127D6E7FD4F01001FB51446DF
:1025780090B18AB1012912D10A4B00F1F0010293FE
:10258800D0F8D431483201934FF0FF3320460093FE
:102598000AF07EFF04B010BD6FF01500FAE70020C6
:1025A800F8E700BFFD4F01002DE9F04387B00E4664
:1025B800DDE90E811446DDE910251F4630B329B345
:1025C800DFF850C000F1F009002D08BF65469EB93C
:1025D800CDE9034400F5E2742046059615F0EFFCBA
:1025E80003ABCDE900432A463B46414648460BF03B
:1025F8006FF807B0BDE8F083002241460E924846C6
:102608002A4607B0BDE8F0430BF0B2B96FF01500E9
:10261800EFE700BF09250000F0B504462B4A87B054
:1026280004AB0E4692E8030083E80300002C49D06F
:1026380018460AF007FE0546B0B94FF0FF33E16CC3
:1026480004F15407A163CDE9010000933846236DD6
:1026580004F1380214F0CDFEA06C12F0FAFCC4F8B4
:10266800BC0020B96FF00B05284607B0F0BDA06C80
:1026780012F0EFFCC4F8C0000028F3D0236CD4F8A3
:10268800BC10C4F890300423C4F89430C4F8AC30BB
:102698000223E3620E4BB4F84820C4F88C10616C36
:1026A800236204F18C03C4F8A070A4F89820C4F83D
:1026B800B870C4F8A810A4F8B020C4F8A400A661A3
:1026C8002363D1E76FF01505CEE700BF309901000D
:1026D800E49901002DE9F047044607464FF0010947
:1026E800DFF8508014B93846BDE8F08794FAA4F5AD
:1026F800B5FA85F509FA05F32E0108EB05156FEA19
:10270800030A24EA03042B7B002BEBD058F806308D
:102718001B694BB94644736804222846196807EABE
:102728000A0700F05BFADDE7284698470028D9D168
:10273800F0E700BFD498010030B5002289B00F49F6
:102748000F4816F0C7F8002200230024CDE906231D
:102758000E230C4DCDE903344FF440722846CDE9E1
:102768000144094B094900940BF074FF08492846B5
:102778000BF0FAFE204609B030BD00BF9D270000CF
:10278800B0100020F00B0020892A0000E03800205B
:102798006EA7010001480BF0FFBB00BF8C060020AC
:1027A8002DE9F04780461F480F4612F09EFC06466A
:1027B800002830D000252846BDE8F087237B6BB180
:1027C8002368DB680BB12046984723681B69D3B997
:1027D800636804222046196800F000FA01361034B4
:1027E8004C45EBD3B8F1000FE5D0002DE2D02846D8
:1027F800FFF770FF0546002FF7D000214FF4A470B3
:1028080015F0A7FFF1E7204698470028E0D00AFA1C
:1028180006F31D43E2E705464FF0010A024CDFF8D4
:102828000C90DDE7C0170020D4980100E49801005F
:10283800014B53F820007047249A010008B503465D
:1028480008462BB1044A136000F072FC002008BD52
:102858006FF01500FBE700BFF001002010B5044C35
:10286800237813B903480BF097FB0123237010BD9D
:10287800203200208C06002010B50446094812F0CA
:1028880034FC3CB1084BD3E8EF1F0139C3E8E21F21
:10289800002AF8D1054816F029F8BDE81040044888
:1028A8000BF07ABBB8170020BC170020B01000202E
:1028B8008C06002000200146034BD3E8EF0FC3E845
:1028C800E21F002AF9D17047B817002070B5FFF74A
:1028D800F1FF0546074C084EB44200D370BD63684B
:1028E8005B792BB123685B6813B12946204698476A
:1028F8001034F1E7D4980100E498010010B5044CB5
:102908000449204611F07DFF034B1C6010BD00BF39
:1029180054050020109A0100B017002008B50023C4
:10292800074A4FF400411370064A07481360074AE4
:102938001360FFF783FFBDE80840FFF7DFBF00BF64
:1029480021320020B8170020EF500100BC170020EA
:10295800014600220023014811F074BF54050020ED
:10296800014812F00DB800BF54050020024B014683
:10297800186812F059B800BFB0170020014812F0CB
:102988008EB800BF5405002070B5264B1878002873
:1029980047D0FFF7E5FF054670B1234BD3E8EF1F9B
:1029A8000139C3E8E21F002AF8D1204C204EB44276
:1029B8002DD32846FFF7DAFF1E4B1F4C1B68002B50
:1029C80019DD15F040FF4FF47A72A0FB020302FBF9
:1029D8000131C30B43EA4143D4E900209B1A40F27A
:1029E800E9324FEAD13161EB0001934271F1000104
:1029F80001D3FFF76BFFD4E9003213F57A7342F184
:102A08000002C4E90032BDE87040FFF7B7BF636851
:102A18005B7923B12368294620461B689847103400
:102A2800C5E770BD20320020BC170020D4980100F3
:102A3800E4980100B8170020A810002070B50D4DCB
:102A4800297861B90120FFF7ABFE0B4C0B4EB4425D
:102A580006D3FFF799FF0028FBD101232B7070BD27
:102A680063685B791BB1236820469B6898471034DC
:102A7800EDE700BF21320020D4980100E49801005E
:102A880000212DE9F0470846FFF78AFE044658B3AF
:102A980040F267684FF0000916F044FC1B4B1C4AD3
:102AA8001B58136033B11B4B1B68092B02DD1A48F6
:102AB8000BF072FA0025194FDFF85CA044B12046EC
:102AC800FFF708FE044618B94FF0FF384FF0FF39FA
:102AD800FFF75AFF064628B9B5B942464B46504655
:102AE8000BF08EFA3546E9E74FF0FF384FF0FF3923
:102AF800D2E72B689B691BB10022284611469847EC
:102B08001035BD42F5D3E8E7054DFAE708000000A7
:102B1800B4170020BC1700208C060020E4980100A0
:102B2800D498010013B5184812F0DFFA174B1B7838
:102B380073B1EFF31184202383F31288BFF36F8FEF
:102B4800FFF722FF84F31188BFF36F8F02B010BD27
:102B58000F4B1B68002BF9D050B9002200230D48F9
:102B6800CDE900234FF4004200230CF0FBFAEDE717
:102B78000928EBD1074815F0B9FE074802B0BDE8AF
:102B880010400BF009BA00BFBC170020213200200A
:102B9800B4170020B01000208C06002010B5064B9A
:102BA80004461B6898472146A060044811F0C9FEF6
:102BB800BDE81040FFF7B6BFF00100205405002023
:102BC800044A054B9B1AB1EBD30F34BF52F83100BE
:102BD80000207047E4970100D4980100084B10B416
:102BE800C31A44681B110133237143689A71012287
:102BF8004368196043685A7110BCFFF72FBE00BFC5
:102C0800D49801002DE9F04F8FB0C1F34A2804AFE2
:102C18000D469146B8607B600C0DB8F1000F63D08B
:102C280000264FF0040B4FF00A0A07F11403C7F807
:102C38000C80C7E907667E620193CDF808B0CDF82D
:102C480000A007F11C0332464846F968FEF78EFEDD
:102C5800B0F5006F03461CD36C468AB0D9F804104F
:102C680004AB26481A46C3E9050140F2FF71D96151
:102C78004FF400711984224B42F8103F4FF412515F
:102C880033462048FFF7BEFFA5462C37BD46BDE8B2
:102C9800F08FC0F30A0804F11700184420F0070069
:102CA80080083B60FFF754FE68F35325044690B153
:102CB8003B6800F11001C7E9083607F11403F96110
:102CC800CDE900A3CDF808B048460F4AF96807F1E6
:102CD8001C03FEF74BFE68F353252A4620467B6803
:102CE800B96812F034FAD0E704F1170020F00700B1
:102CF8008008FFF72DFE0446EDE700BF83A701001B
:102D080004000001749801002B5101002DE9F04FD7
:102D180087B00446DDE9105ADDE9127993469846F2
:102D28000391BFB13B46524610210020CDF80090D8
:102D3800CDF81490FEF748FCB0F5006F06460AD3AC
:102D480040F2FF730221174A174807B0BDE8F04F59
:102D580012F056BA3E4605F11700304420F007003D
:102D68008008FFF7F5FD04F007040BF0070BE400FB
:102D780044EA8B1444EA462444EA0554054640B123
:102D88003FB13B4652463146CDF800901030FEF731
:102D98001BFC434622462846039907B0BDE8F04F7E
:102DA80012F0D5B9C2A7010074980100406820B19B
:102DB800034BC01A40F3CF0070474FF0FF30704705
:102DC800E49701000EB403B503AB53F8042B014696
:102DD8000448019301F096F902B05DF804EB03B0E2
:102DE800704700BF6B520100CA0605D48B064CBF62
:102DF80002490349FFF7E6BF704700BFBFCA010099
:102E0800BECA01002DE9F04F89B09B46149B9DF87E
:102E18004CA00693159B04460593169B0D469046B9
:102E2800179E0493BAF1000F00F09D8006F480739A
:102E3800079312F074F906F00209024600283ED002
:102E480020469149FFF7BEFF0746B9F1000F08D0A9
:102E580016F0440F35D12A4620468C49FFF7B2FFB9
:102E6800074406F0010353B1894B204653F82A2042
:102E7800884B8949002A08BF1A46FFF7A3FF06F4C2
:102E88008073002B49D006F00803002B63D1B8F1FA
:102E9800000F66D0424620468049FFF793FF05465B
:102EA800069B3D44002B6DD1049B002B73D1F30787
:102EB80000F1E48031462046FFF796FFD8E0074648
:102EC800C3E7774B18680028CAD0764B4FF47A7955
:102ED8001B684FF03C0CB5FBF3F5B5FBF0F14FF474
:102EE800616300FB115509FB05F5B1FBF3F2B5FB76
:102EF800F0FE03FB121100FB1E55B1FBFCF309FBAE
:102F080005F5B5FBF0F50CFB131120460091CDE952
:102F180001E56549FFF756FFA2E706F00803EBB1A4
:102F2800624B204653F82A206149FFF74BFF0546BC
:102F3800B8F1000F05D0424620465849FFF742FF36
:102F48000544BBF1000FABD05A4620465949FFF75C
:102F580039FF0544A4E74FF0000BE1E706F0080548
:102F6800E6E745469CE7BBF1010F069B06D1002B1F
:102F780064D1049B002B7BD000250CE0002BF8D0FB
:102F88004D485CE04D48069B22464D4911F0C9FA70
:102F9800049B002B68D0DFF82C81DFF82C91049F6C
:102FA8003146102F204628BF10274FF0000BFFF79F
:102FB8001BFF5D4545DC059B494620461A78FFF70F
:102FC80001FF4FF0010B1BF0070F03D141462046CC
:102FD800FFF7F8FE5F453BD9059B4946204613F8A5
:102FE8000B20FFF7EFFE0BF1010BBBF1100FEAD13D
:102FF8004FF0000B20463549FFF7E4FE5A46059B83
:1030080020469A5CA2F120015F2928BF2E22304970
:10301800FFF7D8FE0BF1010BBBF1100F1DD01BF011
:10302800070F03D141462046FFF7CCFE5F455A46BD
:10303800E5D841462046FFF7C5FEEBE71F48554651
:10304800A1E741462046FFF7BDFE0BF1010BB0E7B3
:1030580020462049FFF7B6FEC5E7059B3B4405938C
:10306800049BDB1B04939AD1BAF1000F7FF41FAFC6
:10307800204609B0BDE8F04F12F0E6B82046054AF0
:103088000549FFF79FFE15E7FFA7010003A8010008
:10309800349A0100FAA7010025B3010028A801000D
:1030A800C8170020C41700200CA80100489A010086
:1030B8002CA8010032A80100995201006B520100AE
:1030C8000D4100008ACA010037A801003DA801008F
:1030D8003FA8010088CA010042F20F7373B58B4202
:1030E80028BF0B4605680446052168460D4A10F0BE
:1030F800ABFC0646636828460B225B680A4912F057
:1031080095F863683246694628465B6812F08EF87F
:1031180063681B2228465B68044912F087F802B0EE
:1031280070BD00BF4CA501005EA8010042A80100C7
:1031380000210123064A904206D8064A01B9012314
:103148001360054B18607047012140085B00F2E7E7
:1031580040420F00C4170020C8170020F8B50D46DC
:103168000446064F4618B44201D12846F8BD14F863
:10317800011BBB6801485B689847F4E78494010029
:10318800014B036000207047909A010008B504487D
:1031980011F021FABDE80840024811F01CBA00BF3E
:1031A800A4A80100D9A80100034B9B681BB1481EC5
:1031B80018BF012018477047F817002010B51C46A3
:1031C800034B11461B680BB122469847204610BD99
:1031D800F8170020024B5B6803B11847704700BF1F
:1031E800F817002030B1044B02681A6042685A6030
:1031F80082689A6000207047F817002070B50E4664
:103208001546044686B000211822684615F0E6FFE8
:103218000B490C4BCDE90116ADF80C5004932CB9B1
:103228006946204606F096FC06B070BD012220468D
:1032380006F0FEF90028F3D16FF01500F4E700BF9F
:10324800B89A0100DD31000001480DF07BB900BFDC
:10325800089B010038B5044618B90F4B0F485B6846
:1032680098476168B1F5683F10D0B1F5680F0DD087
:103278000B4DA9420AD011F46861206807D00146B5
:10328800084814F097FF00232360656038BD1422B6
:1032980015F0A4FFF9E700BFD804002063A90100D6
:1032A8002C5F5CA9041D002008B560B34368B3F522
:1032B800683F0ED0B3F5680F18D0144A934220D057
:1032C80000684FF0FF324FF0FF330AF06BFD58B142
:1032D80015E001220368D3E8EF1F002903D1C3E8F2
:1032E800E02F0028F7D10AD1002008BD0368084A5A
:1032F8001B7803F5807352F82330002BF4D005486F
:10330800F3E70548F1E76FF4E040EEE72C5F5CA9CE
:1033180000000350E98FFFFFEA8FFFFF08B520B3D5
:103328004368B3F5683F09D0B3F5680F13D0114A65
:1033380093421DD000680AF0ADFD14E00022036836
:10334800D3E8EF1F012903D1C3E8E02F0028F7D104
:1033580009D0094808BD00210368084A1B7803F50D
:10336800807342F823100020F4E76FF4E040F1E79F
:103378000348EFE72C5F5CA9E98FFFFF00000350CB
:10338800EA8FFFFF10B5044618B91D4B1D485B684E
:1033980098476368B3F5683F2FD0B3F5680F2CD012
:1033A800194A934219D1236803BB4FF0FF324FF0FB
:1033B800FF33214615480AF0C7FC08B923681BB932
:1033C8000F4B13485B68984714220021206815F0BA
:1033D80005FF4FF46863636008E0B3F5683F0DD8F4
:1033E8003A2B03D040F6BA629342DED1206814F03B
:1033F8002CFF636843F03A03636010BD054AF3E7A6
:10340800D804002063A901002C5F5CA9041D0020DA
:1034180089A901003A00003A08B506494023142258
:10342800054814F0B9FEBDE80840044904480DF009
:103438004DB900BF04180020041D0020109B010096
:10344800249B01002DE9F04706460C4600AF0029F1
:1034580036D0D1E90012E9468AB06D46A3684FF02C
:10346800050AA8461F48C5E90723C5E9050148F824
:1034780010AF002342464FF421511B48FFF7C2FB0F
:10348800D4E90312CD466369AD461848C5E9072358
:10349800C5E90501C5F810A0002342464FF42151A3
:1034A8001148FFF7AFFBCD46E3690121104A0E48EA
:1034B80011F0A6FEA36901210E4A0B4811F0A0FEE7
:1034C800012E07D1EFF305830B4A31460648103B1E
:1034D80011F096FE214630460AF070FABD46BDE866
:1034E800F08700BFB6A90100AC980100E5A901006A
:1034F80014AA010023AA010051AA010030BFFFF756
:10350800FDBF00BF2DE9F04105460B4EDFF82C80CA
:10351800324606EB0807CC1B2046094915F037FE52
:10352800A01942460021083C15F058FEC5F8A840ED
:1035380007F10800BDE8F081000000000400000069
:1035480028990100074A936893F90E10002907DBB0
:10355800526993421FBF044A536843F08053536033
:10356800704700BF5821002000ED00E070B52A4CDC
:1035780006460D4629482A4911F012FFA36ADB06C0
:1035880047D52648274911F00BFF1120A36A1C07CD
:1035980004D52248244911F003FF12201E4CA36AC7
:1035A800990712D521491D4811F0FAFE636BA26AEA
:1035B800120609D501211E4A184811F021FE1EB134
:1035C800A36A23F08003A3621320134CA36ADE07C7
:1035D80004D51248174911F0E3FE1420A36A9C068B
:1035E80004D50E48144911F0DBFE15200A4B9A6ADF
:1035F800D10658BF9A6A9A6A920642BF5A6A22F45A
:1036080000525A629A6A42F0FF029A6200232B70B3
:1036180070BD1020BAE700BF00ED00E0AC980100D3
:1036280064AA01007AAA0100ADAA0100C0AA01009B
:10363800D8AA0100EEAA01000DAB010010B5244C78
:103648002449254811F0ACFEA36A99013ED52248C9
:10365800224911F0A5FE1E20A36ADA0104D51E48EE
:103668001F4911F09DFE1F20194CA36ADB0204D5E7
:1036780019481C4911F094FE0220A36A1C0304D5C2
:103688001548194911F08CFE2120114CA36A5903E1
:1036980004D51148154911F083FE2220A36A9A0324
:1036A80004D50D48124911F07BFE2320084CA36A6B
:1036B800DB0304D508480F4911F072FE2420A36AE1
:1036C8006FEA03436FEA1343A36210BD1D20C3E7EB
:1036D80000ED00E03CAB0100AC98010054AB0100E8
:1036E80067AB010081AB0100ABAB0100C9AB0100C6
:1036F800EEAB010008AC010070B5294C06460D463A
:103708002848294911F04CFEA36AD9043CD525481C
:10371800264911F045FE1720A36A1A0504D5214849
:10372800234911F03DFE18201D4CA36A9B0512D5B4
:103738001C48204911F034FEA36BA26A100409D575
:1037480001211D4A174811F05BFD1EB1A36A23F43D
:103758000043A3621920124CA36A590504D51148E5
:10376800164911F01DFE1A20A36ADA050ED50D4878
:10377800134911F015FE1B20094A936A43F47F434D
:10378800936200232B7070BD1620C5E7A36A9B04C3
:10379800F2D504480B4911F003FE1C20ECE700BFEA
:1037A80000ED00E0AC98010033AC010049AC010029
:1037B800ADAA01005AAC010073AC010088AC01004D
:1037C800A3AC01000DAB01002DE9F0418AB0654BB7
:1037D8000446D3F80480002600AFC8F3080586F332
:1037E8001188BFF36F8F02F07F43B3F17F4F07D18A
:1037F80002F00C03082B12D15B495C4811F0D0FD94
:10380800002634460023FB71EB1E092B00F2898049
:10381800DFE803F00A7F827B878787878785100721
:103828004CBF0C460126EDE75149504811F0B8FD50
:1038380000234C4DFB71EB6A9A0705D54D494B485F
:1038480011F0AEFD002331E0EB6A002B01DA4A49A2
:10385800F5E7EB6A5B00F5D54849444811F0A0FD4F
:103868006B69A26943F480736B61BFF34F8FBFF339
:103878006F8F6B6932F8022C23F480736B61BFF38E
:103888004F8FBFF36F8F4DF602739A4207D0AB6A22
:10389800DBB26BB30120F91DFFF768FE37E0236840
:1038A8000121374A314811F0ABFC2368FA79DAB9BB
:1038B80007F1080504F1200C2A46206861680834DD
:1038C80003C264451546F7D17A6A002E45D0C2F383
:1038D800080121B96FEA52226FEA42227A62184639
:1038E80007F10801FFF7AEFD2837BD46BDE8F081B6
:1038F800AB6A13F47F4F04D00120F91DFFF7FCFEDB
:1039080005E0AB6AB3F5803F9CD3FFF797FE03460B
:10391800CCE70020F91DBFE70020F91DEEE71949A3
:103928008DE7194A18F4F87FE8468AB0174B18BF94
:1039380013466A461649103DC2E905134FF4007351
:103948001384144BD56142F8103F00234FF41151F2
:103958000648FFF757F9C54674E722F4FF7222F0CC
:103968000102BBE700ED00E0E9AC0100AC98010002
:1039780014AD01002BAD01004CAD01005AAD0100A2
:1039880079AD010095AD0100D0AC0100BBAC0100E0
:10399800B9AD010004000001064B5A6942F010025B
:1039A8005A615A6942F480625A615A6922F00802DF
:1039B8005A61704700ED00E0EFF30880EFF30981EA
:1039C80001B57246FFF700FF01BD00BF002080F37C
:1039D8001488BFF36F8F002080F30A8880F30B8868
:1039E800104880F3088800200F49087008F0BEF8D6
:1039F80000200E490860BFF34F8F00F02DF82020FB
:103A080080F311880A484FF40061401880F3098850
:103A1800EFF314800221084380F31488BFF36F8FFB
:103A280000F0E4F888590020D934002094ED00E033
:103A380048480020002318460649D1F89020C2F3D0
:103A48000722934200DB7047C1F89830C1F8A00004
:103A58000133F6E700ED00E010B572B6002484F3F8
:103A68001388FFF7E7FF23464FF0FF300C4A03F1B6
:103A780020010133102B42F82100F8D100234FF028
:103A8800FF30074A03F160010133102B42F821008F
:103A9800F8D162B6BFF34F8FBFF36F8F10BD00BF71
:103AA80000E100E0084B9B6883420BD1EFF30583EC
:103AB80043B1064B5A6842F080525A605A6A22F45F
:103AC80000425A620BF066B85821002000ED00E071
:103AD80017498A684FF030001044EFF3098C80E8EA
:103AE800F01F202080F31288BFF36F8F114F4FF023
:103AF80000664A698A603E604FF0A804141920687D
:103B08000D4C2060D2F8AC000023C2F8AC3080F332
:103B1800118802F1300090E8F01F8CF3098802F157
:103B2800000004B511F044FCBDE8044070470000F3
:103B38005821002004ED00E0201D00201EF0040F95
:103B48000CBFEFF30880EFF30980816911F8021CBC
:103B58000229FFD001B5724611F017FC01BD00BF64
:103B680040B2002807DB01234109034A00F01F0087
:103B7800834042F82130704700E100E040B200285D
:103B88000CDB01220649430900F01F008240203364
:103B980041F82320BFF34F8FBFF36F8F704700BFEB
:103BA80000E100E0054B420953F82220012300F010
:103BB8001F0003FA00F01040704700BF00E100E06A
:103BC80040B2002801F10101ACBF00F16040064B92
:103BD8004FEA4111C9B2ABBF00F5614000F00F00D8
:103BE80080F800131954704714ED00E00B4A08B52B
:103BF8000B4B22F07F029A60BFF34F8FBFF36F8F9A
:103C0800D3F8882022F47002C3F8882009F0C2FF94
:103C18000BF002F900F04AF80AF000F80000000082
:103C280000ED00E042F8203C009B0B4942F81C3CA8
:103C3800019B21F0010142F8183C029B42F8081C44
:103C480042F8143C4FF0807342F8043C0023203AB9
:103C58000265C0F8AC3070474D1D000000B50C4B34
:103C680015469860D0F8A8200A4B0E461A60D0F87E
:103C7800983083F30B882C4686F309880020064B7E
:103C880098472046002100220023044C204700BF0B
:103C980058210020201D0020C35301004D1D0000A5
:103CA8001022014B1A61704700ED00E0002320212B
:103CB8000348C2180133452B82F80013F9D1704725
:103CC80000E100E008B5EFF30583064A103B02EB7C
:103CD800C30152F8330049688847BDE80840FFF738
:103CE80031BC00BFFC9401001FB5094C094A2346AA
:103CF8000121094800F012F900230393074B012121
:103D0800E41A01A80193029400F012F904B010BD5E
:103D18000000072000000020349B01003808002024
:103D280010B50C7A0B6804F01F0223F01F031A4326
:103D3800CB68640923F01F03054943EA440343F0B1
:103D48000103C1F89800C1F89C20C1F8A03010BD4B
:103D580000ED00E010B50A4BD3F89030C3F3072309
:103D6800013B984208D901210346064A064811F04A
:103D780047FA6FF0150010BDFFF7D2FFFBE700BF51
:103D880000ED00E0D0AD0100949801002DE9F04F5E
:103D98008946144606464FF00008514D85B0C8457F
:103DA80027DAD6F804A0BAF1000F44D0BAF11F0FF1
:103DB80017D91AF01F0F14D1D6F800B01BF01F0F37
:103DC8000FD1584611F035FB07460AEB0B000138B6
:103DD80011F02FFB874210D06FF01507414A3B4680
:103DE80001E04346404A0121404811F009FA6FF0CA
:103DF8001504204605B0BDE8F08F17F1160FEDD079
:103E0800BC42EBDDC5F89870D5F89C10C5F89870E1
:103E1800D5F8A03021F01F0143F01F0BD6E900327E
:103E28001A44994202F1FF3A1DD1D34507D13146D0
:103E3800F8B211F007FB08F101080C36AFE731467C
:103E4800C5F89870D5F89C3022F01F0203F01F03C4
:103E58001343C5F89C30E0B211F0F4FA10F1160FD4
:103E6800C5D0441CE7E7C5F89870D5F8A020013BF9
:103E780023F01F0302F01F021343D3453146E0B27B
:103E8800C5F8A030E8D011F0DDFA10F1160FAED069
:103E9800C5F89870D5F89C209DF808300BF1FF3BC9
:103EA80062F304038DF80830D5F8A0309DF8082097
:103EB8005B0863F347128DF80820D6E900321344F3
:103EC800009323F01F035B44A3EB0A03013023F0A4
:103ED8001F036946C0B20393FFF73CFFBEE700BF6C
:103EE80000ED00E019AE0100F6AD01009498010064
:103EF8000522044BC3F89420BFF34F8FBFF36F8F95
:103F0800704700BF00ED00E0BFF35F8F0022024B57
:103F1800C3F89420704700BF00ED00E010B5034CD3
:103F28002278FFF733FF207010BD00BF2332002036
:103F38002DE9F74F294D8A4606464FF00008AB4653
:103F4800274FD0451BDAD6F80490B9F1000F3FD0BF
:103F580031680846019111F06CFA0199044609EBA1
:103F68000100013811F065FA84424FF014021D4B2C
:103F780008D002FB08F36FF015024BF8032003B0DA
:103F8800BDE8F08F14F1160F2C60F8D01978A14213
:103F9800F5DD02FB08B0C7F89840C7F89840D7F895
:103FA8009C4000F10801007B64F304000871D7F815
:103FB800A0000C79400860F347140C71D7F89C10E6
:103FC80021F01F016960D7F8A01021F01F012961B5
:103FD80008F1010814350C36B3E700BF241D002092
:103FE80000ED00E023320020F0B54149414CD1F802
:103FF80090302568C3F307239D4287B075D8002009
:10400800FFF782FF3C4BC1F8C030854216D13B4CCC
:1040180001A82570FFF7B4F800250646384FAE42D0
:1040280013D1002023783249D1F89020C2F3072217
:10403800934254DBFFF75CFF00202FE0616801EB3F
:104048000011FFF76DFE0130DFE70199280101EB50
:104058000513DA683A40B2F5001F21D0B2F5800F97
:104068002BD0B2F5801F38D15A689B680958013B9C
:1040780022F01F0003440120844623F01F0340EA76
:104088004C10CDE902218DF8100002A92078059383
:10409800FFF760FE00281DDA6FF0150007B0F0BDCD
:1040A8005A689B680958013B22F01F0003444FF0EF
:1040B800020C012023F01F03E1E75A689B680958A6
:1040C800013B22F01F0003444FF0000C062023F0B0
:1040D8001F03D4E723780133237001359FE7C1F824
:1040E8009830C1F8A00001339EE74FF0FF30D5E7C4
:1040F80000ED00E0409B0100AAFF440023320020AD
:104108000000F0FFF0B587B007460E4614460021C0
:10411800102268461D4615F061F802238DF802301A
:10412800054B2A4621466846CDE9047601930FF0EF
:10413800B7FC07B0F0BD00BF7F54010008B50248C6
:104148000FF062FCFEE700BF4BAE010008B5024B62
:104158001B689847002008BD381D0020034B044AFF
:104168001860937843F0020393707047381D00205D
:104178005C02002008B50649064821F00701C1F194
:10418800005202F5E02210F074F9002008BD00BFCB
:104198000B7A00203C1D002070B541690446867AE0
:1041A8000A4D59B1437ADB0706D42C2303FB065387
:1041B8005B6A1B689B689847002363612C20214633
:1041C80006FB0050BDE8704014F0E2B8D4060020A9
:1041D8002C22024B02FB0030704700BFD40600209F
:1041E8002C21827A054B01FB02339A6A1B7F801AC5
:1041F8001B3323F00303B0FBF3F07047D406002011
:1042080038B52C24827A064B04FB02335B6AD3E967
:1042180001240C601568FFF7E3FF04FB005038BD6C
:10422800D40600202DE9F04385B00546684690463F
:104238001C46039114F009FBDDE90067EFF31189CF
:10424800202383F31288BFF36F8F6B8B002B41D031
:104258002A8B9A4225D900220023284609F06AFEB3
:104268000446F0B189F31188BFF36F8F039B002BCD
:1042780041D032463B46684614F00BFB2C21A27A0B
:10428800254B204601FB02335B6A03A91B681D68A6
:10429800DDE90023A847606170BB2046FFF77CFF7B
:1042A80024E0698B4B1E6B8389F31188BFF36F8FF2
:1042B8002B7F2A8BAC6A1B3323F00303521A02FBB1
:1042C8000344154B154AEB1A9B105343A3722B7FDB
:1042D800E372CBE789F31188BFF36F8F2346424619
:1042E800284609F027FE04460028BFD100242046AE
:1042F80005B0BDE8F0836361012300252381039B9A
:1043080029466382E27A656004F1180014F066FFBA
:1043180063692582E360EAE7D4060020A38B2EBAFE
:1043280070B52C250B4C00B970BD037A4668013B6B
:10433800DBB20372002BF7D1C3604360837A05FBBD
:1043480003431B6A13B198473046ECE7FFF724FF95
:10435800FAE700BFD406002000F01F0240090DD084
:1043680001280DD1094B03EB8203D3F8002222F078
:10437800E04242EA0171C3F800127047044BF2E7C9
:104388000023803253F82230FFDE00BF002884501B
:104398000025845038B50124134B144DC3F800454B
:1043A80002230321C5F8D0360020FFF7D5FF2046A9
:1043B8000321FFF7D1FFC5F804472146C5F8044992
:1043C8002120C5F8004BFFF7C7FF21462020FFF743
:1043D800C3FF21460B20FFF7BFFF21460A20FFF746
:1043E800BBFF002038BD00BF001000500040005047
:1043F80007B50DF1070007F0DDFC114B98421CD101
:104408004FF480620F4B1049C3F8B8254FF400628F
:10441800C3F83C259DF8070012F064FE0B499DF88F
:10442800070012F05AFE01209DF80730984007F067
:10443800BBFC002003B05DF804FB6FF00B00F9E74C
:104448000000AD0B00A002502CA0025028A1025081
:10445800052370B5144D154E2C780134B4FBF3F3D5
:1044680003EB8303E41A12F012FE114A137823B106
:1044780056F82430C01A072814D94FF05023D3F81F
:10448800141141B10021C3F81411D3F814312C7060
:104498000CB9012313702C7812F0F9FD46F82400AA
:1044A800012070BD0020FCE725320020481D0020B7
:1044B8002432002048B1054B054A1B68B3FBF2F3D0
:1044C8005843044B43F0010318477047EC0300209E
:1044D80040420F00909901000149024810F047BB83
:1044E800789B01005C1D00204FF47F032DE9F0410B
:1044F800D3F830210646072A0D46D3F8343120D1A7
:10450800023B032B02D8124AD35CD3B14FF050249C
:104518004FF0010800270520C4F81886C4F814765F
:1045280012F0D9FD4046C4F8148612F0D4FDC4F840
:104538001476C4F8187630462B46BDE8F0410021C1
:1045480018474FF050230022C3F81426F3E700BFA2
:104558006BAE01001FB578B10023019303930123CB
:1045680069460848029310F015FB029B9B0700D18F
:10457800039B05B05DF804FB024805B05DF804EB49
:1045880010F05FBB5C1D002008B5044813F055FD12
:1045980000280CBF6FF01200002008BD70940100C5
:1045A8000E4B402928BF402170B51D460C4C4618BB
:1045B800B04203F1020304D1002305F81130074883
:1045C80070BD02781209A25C03F8022C10F8012BC6
:1045D80002F00F02A25C03F8012CE9E74432002044
:1045E800CEAE010030B503788BB0044607AD032B7F
:1045F80021D8DFE803F0021A1C1E12492846FCF7EE
:1046080079FB059563781E210493A3780E4A0393DA
:10461800E3780E4802932379019363790093A37991
:104628000FF012FA09480BB030BD0949E6E709490D
:10463800E4E70949E2E70A212846084A0FF004FAA4
:10464800DFE700BF89AE0100ABAE010026320020D3
:1046580090AE010097AE0100A1AE0100C6BF0100F7
:1046680030B50024094D0A4B85B0284602930394BF
:1046780013F066FF02AB284600934FF4E1620A2369
:10468800044909F093FE204605B030BDE81000202B
:10469800DFAE0100E03B00200146014809F000BF01
:1046A800E8100020037830B5012B13D0022B27D057
:1046B8007BB90A46184B03F1100453F8045BA34274
:1046C80042F8045BF9D11B78137043884B731B0ABB
:1046D8008B7330BD0A46104B03F1100453F8045B8A
:1046E800A34242F8045BF9D11B7813704368C3F303
:1046F80007224B731B0CCB731B0A8A730B74E8E7F6
:1047080000F1100350F8042B984241F8042BF9D11A
:1047180003780B70DDE700BFE8AE010010B5044672
:104728000AF038F9044B1B680BB120469847BDE8DE
:1047380010400AF043B900BF781D0020022838B5A0
:1047480005460CBF0648074810F0A6FE044620B1EF
:1047580001210C3010F0F5FE2576204638BD00BF4B
:1047680084070020D40600200F2810B50ED80D2885
:104778000ED90B4810F090FE044628B101210C30E8
:1047880010F0DFFE02232376204610BD1328F0D058
:1047980009B10448EEE70220BDE81040FFF7CEBF9C
:1047A8000808002058070020C36802211B78024A25
:1047B800024811F010B800BF08AF010014980100BA
:1047C80070B5C6683378B6F8014083B90F21204622
:1047D80002F05AFDF378054650B90A4A118831B9F2
:1047E8006FEA04506FEA10501080074A137070BDCA
:1047F8004372012102F066FC2846BDE8704002F0D1
:104808003BBC00BF04320020C532002070B5C3682D
:104818001D78BDB9B3F801600F21304602F034FDB0
:10482800044638B93346BDE870400121064A0748B6
:1048380010F0D1BF294602F045FC2046BDE8704083
:1048480002F01ABC70BD00BF30AF0100149801001F
:1048580010B5C3680121B3F80140204602F014FDE9
:1048680038B92346BDE810400121044A044810F035
:10487800B2BFBDE8104002F0FFBB00BF56AF010059
:1048880014980100012110B50C3010F095FEBDE818
:10489800104003780121024A024810F09CBF00BF73
:1048A8007AAF010014980100014610B5084810F0CD
:1048B800F7FD0849084813F018FE031E06DABDE89C
:1048C80010400121054A064810F085BF10BD00BF01
:1048D8004C0100207C020020C01100209CAF010088
:1048E8001498010010B5084C0146062294F86F0090
:1048F80002F08CFF38B994F86F000522BDE810402B
:10490800024902F083BF10BD000000206FAE010015
:104918000121024A024810F05CBF00BFB9AF010094
:10492800149801000B46B0B50D8A00AF044629461D
:10493800D868FFF735FE8AB06A46094BC2E90750C6
:10494800C2E9053440F202439384064B4FF43251D6
:10495800054842F8103F10F04BFFBD46B0BD00BF00
:10496800D3AF0100050000011498010070B5C568B7
:104978000121B5F80160304602F086FC044638B9DA
:104988003346BDE8704001210B4A0C4810F023BFA4
:104998002B783BB9D5F80330C0F89530D5F80730F7
:1049A800C0F89930201D4FF4803110F016FF2046D2
:1049B800BDE8704002F060BB56AF010014980100DA
:1049C800B0B53C28044600AF1AD101F079FE6FF06B
:1049D8008001103010F00FFF0020FFF783FF05461D
:1049E80030B90121114A124810F0F3FEBD46B0BD9E
:1049F8004472002102F066FB284602F03DFBF5E711
:104A08006D468AB06A460B4B4FF41251C2E9053025
:104A1800094B0748D36140F201331384074B42F82E
:104A2800103F10F0E5FEAD46E0E700BFF5AF01002E
:104A38001498010016B00100C0CA0100040000016A
:104A480037B50446084602EBC3039A4202D16FF019
:104A58005E0010E0114611F8085BA54211D1038AE7
:104A68005178994209D908480121084A009410F060
:104A7800D1FB6FF0150003B030BD53689847002094
:104A8800F9E70A46E1E700BF1498010032B00100D7
:104A980073B53D4810F019FD0446002872D0017E18
:104AA800022948D008296AD1038A032B05D8374A36
:104AB8000121374810F08FFE13E004210C3010F06C
:104AC8007BFDFF23428806886376238AC6F30B00A2
:104AD8009A42A08309D0012100922D482D4A10F056
:104AE80099FB2046FFF71CFC12E00F2102F0CCFBDB
:104AF800054610B9A38B284ADAE702F005FC2146DF
:104B08006076320B284602F08BF9284602F0B4FA98
:104B1800224BD3F84C31002B34D02149214813F0D3
:104B2800E4FC031E2EDA01211F4A194802B0BDE831
:104B3800704010F050BE038A012B01D81B4AB7E71A
:104B48000C3010F039FD0546007810F030FE10F0FA
:104B580002060DD140F6CE33154A164916480FF015
:104B680047FD86F31188BFF36F8F0323184602DFD2
:104B780004232146114A287810F045FEB1E70B4678
:104B88000F4A95E702B070BD4C01002054B00100F7
:104B98001498010075B0010099B0010000000020D0
:104BA8007C020020C01100209CAF0100BBB00100B6
:104BB800D7B001000BB1010039B10100249C0100FC
:104BC80056B1010010B5012104460C3010F0F4FC78
:104BD8002146BDE810400623014A007810F013BEB4
:104BE800449C0100F8B50121044600AF0C3010F0D8
:104BF800E3FC0678002321463046104AFFF720FFE1
:104C08005F3018D1258AE0682946FFF7C9FC6C4651
:104C18008AB06A460A4BC2E90750C2E9053640F233
:104C280002439384074B4FF43251074842F8103F30
:104C380010F0DEFDA546BD46F8BD00BF749C01001E
:104C48006AB1010005000001149801002DE9F74F31
:104C58000023804689461746DFF814A1DAE8EF4FAB
:104C6800CAE8E23F002AF9D1264644B94346012161
:104C7800404A414803B0BDE8F04F10F0ACBD2046B3
:104C8800FFF7AEFA4FF00C0B3C4D0BFB005043887E
:104C980043451BD02046FFF7A3FA0BFB005043887F
:104CA80001210093364A4346334810F0B3FADAE854
:104CB800EF3FCAE8E26F002AF9D1002B54D01E4614
:104CC800304603B0BDE8F04FFFF72ABBA7420FD02C
:104CD800204610F0DCFB022304F10C0801214046B9
:104CE800237610F02EFC40463A8AF96810F03AFC18
:104CF8002046FFF775FA0C2707FB00504368ABB155
:104D0800B9F1000F12D12046FFF76AFA012107FB1B
:104D180000504268D2E90003127A03F01F07B94035
:104D28005B09DAB100EB830010F057FD2046FFF76E
:104D380057FA0C2707FB00508368002BC0D0204689
:104D4800FFF74EFA784305F800902046FFF748FA37
:104D580007FB0055A86809F01FF9B1E7C94300EB44
:104D6800830010F048FDE1E703B0BDE8F08F00BF15
:104D7800480100209CB10100149801007C1D00200E
:104D8800C4B101002DE9F84F0123D0F80C80018A45
:104D980098F8004000AF03EB84038B425BD96D4663
:104DA8008AB06A46C2E9073105232D484FF42151DC
:104DB800C2E905042B4842F8103F10F019FDAD4632
:104DC800BD46BDE8F88F4B460121274A254810F01B
:104DD80002FD013598F800309D42F1DA08EB8503B1
:104DE800B3F801900F214846B3F8036002F04CFA7B
:104DF80004460028E7D000F1C0095EB1204601F062
:104E0800B3FF09F0C9F8636943B95A460121154847
:104E180010F0DFFC204602F02FF9DAE7A1691A68E2
:104E28008B42626108BFA261C3F800A0226A7AB906
:104E3800C4E90733D9E8EF3F013BC9E8E23F002A5C
:104E4800F8D100212046013E01F09AFFB6B2D4E71E
:104E580013602362EEE70025DFF810B0AA46B9E731
:104E6800F7B101001498010021B201003DB2010020
:104E780073B5C5680121B5F80160304602F004FA3F
:104E8800044640B9334601213A4A3B4802B0BDE8DE
:104E9800704010F0A0BC2B78061D1A2B19D1C378CE
:104EA800012B4ED14FF48041304610F096FC42045D
:104EB8000FD4D4F8883069460093D4F8903020464F
:104EC800019302F073FF204602B0BDE8704002F083
:104ED800D3B82B78ABBB40F67A41B5F80320A4F8D9
:104EE800862093B2B5F80520A4F88C20B5F80720E1
:104EF800A4F88E209A1F92B28A4204D902211F4A2E
:104F08001D4810F068FCB4F88C30B3F5FA7F04D370
:104F180002211B4A184810F05EFC40F67641B4F8AE
:104F28008E30A3F10A0292B28A4204D90221154AAC
:104F3800114810F050FC6FF48051304610F05BFCC3
:104F480014E0D6E8AF3FDB04F5D52B78202BF2D15F
:104F580094F89430002BEED0013B84F894304FF451
:104F68002032002304F1400009F0C4FA204602F080
:104F780037FBA8E756AF01001498010054B20100AE
:104F88007CB20100A3B20100054BD3E8AF2F02F0B9
:104F98000902D3E8EF1FC3E8E02F0028F9D17047D2
:104FA800D400002010B5C1E900239DF808300C4654
:104FB8000B72FFF715F90C22024B02FB00335C6001
:104FC80010BD00BF7C1D00202DE9F0474FF0FF32D7
:104FD80006464FF0FF331848884610F05DFA04463D
:104FE80038B300F10C070121384610F0AAFA012362
:104FF80020462376FFF7F4F84FF00C090F4D4FF0D9
:10500800000A09FB005046802046FFF7E9F809FB33
:105018000050C0F808A02046FFF7E2F809FB005549
:1050280003213846C5F804A010F096FA068080F8E7
:1050380002802046BDE8F087DC0700207C1D0020A8
:1050480070B5064690B00B4D01AC0FCD0FC40FCD17
:105058000FC40FCD0FC495E8070084E807000E2E93
:105068009DBF10AB03EB860656F83C0C024810B007
:1050780070BD00BF38990100CFB20100034B014653
:10508800D3F86C0182689268104700BF00000020C6
:105098002DE9F843044600F10C06304610F09CFA5E
:1050A800B4F810800546B8F1010F0AD8434601212B
:1050B800194A1A4810F08FFB2046BDE8F843FFF75D
:1050C8002FB93046022110F077FA0746007810F021
:1050D8006EFB10F0010906460DD140F6EE73104A3A
:1050E800104911480FF084FA89F31188BFF36F8FC4
:1050F8000323184602DF052321460C4A387810F0AE
:1051080082FBB307D8D56369A4F8108013FA85F534
:10511800E560BDE8F88300BFBBB00100149801004A
:10512800D7B00100D7B2010039B10100FC9B0100E2
:1051380038B50C4609F02EFC237E022B05D0082B2F
:1051480014D12046FFF7B0FB0BE0E368187810F0A5
:105158002EFBC207054602D52046FFF799FFAB078D
:10516800EFD4002409F02AFC204638BD0121054A65
:10517800054810F030FB2046FFF7D2F86FF0150411
:10518800F0E700BFF0B20100149801002DE9F84FD4
:105198003D4C00AF04213D4810F01FFB3C4DE27927
:1051A8003C4B2046012A88BF1D466E46FFF71AFA77
:1051B8008AB06A46384BA346C2E905350125374B04
:1051C800D0611362364B4FF42351364842F8103FF2
:1051D80010F00EFBDFF8D080B546DFF8C890334EEC
:1051E800E3790BF1070B9D4238DB94F870506E465B
:1051F8002846FFF725FF8CB06A46B4F87210B4F859
:105208007630C2E907514FF400755362DFF8A0C049
:10521800284BC2E905C015854FF4535142F8103F99
:10522800204810F0E5FAB54694F871603046FFF76B
:1052380007FF8AB06A46B4F874301F49C2E90763A9
:105248001E4BC2E9051095844FF43351154842F8B6
:10525800103F10F0CDFABD46BDE8F88F5846FFF76D
:10526800C1F9EA468AB06A4640F20133C2E90565E7
:10527800D06113844FF41351484642F8108F10F050
:10528800B7FA0135D546ABE700000020D40000206E
:10529800C0CA010004B3010008B301000002010301
:1052A80004000002149801000400000117B3010073
:1052B80028B301000600000166B3010005000001E3
:1052C8000048704705A60100014809F069B800BF09
:1052D8006C02002038B505460C4619B9FFF774FE74
:1052E8000446D8B140F635439D420FD12046FFF71A
:1052F800C5FE054640B1034601210A480A4A10F096
:105308006AFA2046FFF70CF8284638BD21460748B8
:1053180013F033F80025FFF7D7FFF5E76FF06805BE
:10532800F2E700BF149801008DB30100540100207A
:10533800F8B50521054640F63540FFF745FE044619
:1053480078B9FB231C4A1D491D480FF051F91D4827
:105358000FF04EF984F31188BFF36F8F03231846BB
:1053680002DF04F10C070121384610F0F5F8012698
:1053780004210670384610F0EFF805800025214614
:105388008670C57040F63540FFF7A4FF044688B123
:1053980040F20513084A0C4909480FF029F921463B
:1053A8000A480FF025F985F31188BFF36F8F03239F
:1053B800184602DFF8BD00BFD7B00100FCAE0100FF
:1053C80039B10100AFB30100CEB30100D7B301007A
:1053D8002DE9F0410446868B477E807AFEF7F8FE79
:1053E8006169054649B1637ADA0704D4436A2046FD
:1053F8001B689B689847002363612146284612F082
:10540800C7FFA37E33BB144B93F88A309B0621D584
:10541800384602F0D1FA044638B93B46BDE8F041B7
:1054280002210E4A0E4810F0D6B9837A073B012BA9
:1054380009D90B4802210B4A10F0CBF92046BDE8E8
:10544800F04101F019BE01F017FE3046BDE8F04109
:10545800FFF76EBFBDE8F08100000020FAB301003D
:105468001498010023B4010073B5C368D9789A78F9
:105478001E8842EA0122ADF8002059791A79B4B29F
:1054880042EA0122ADF80220D9799A79204642EA07
:105498000122ADF804201A7A5B7A012142EA03233B
:1054A800ADF8063001F0F0FE054658B901211C4858
:1054B80023461C4A10F08FF90221204610F0D8F933
:1054C80002B070BD694602F0D1F838B91E212046F5
:1054D80010F0CEF9284601F0CFFDF1E70E2142F297
:1054E8002000FFF771FD04460028F3D00E210C3090
:1054F80010F032F800230680C0F80A30BDF80030FA
:1055080021464380BDF802308380BDF80430C38053
:10551800BDF80630038142F22000FFF7DBFED9E731
:105528001498010056AF010038B502460B462B4DC2
:10553800D5F8541109B9002038BD05F5987008F060
:105548005FFD0028F7D10022002305F5AA7008F0B6
:10555800F1FC044668B940F6DD33214A2149224866
:105568000FF046F884F31188BFF36F8F03231846B2
:1055780002DFD5F848315BB101211C4A1C4810F004
:1055880028F9D5F84801FEF7CBFE0023C5F84831C5
:1055980020460FF0B0FFC5F848012046FFF76EFD22
:1055A8000346C8B10121134A114810F014F91248F2
:1055B80008F0F2FC2046FEF713FE0C220F4B02FB0C
:1055C8000033588818B122461F21FFF73FFB2046B9
:1055D800FEF7A6FEFFF778FE0120ADE700000020E9
:1055E800D7B00100FCAE010039B101004FB4010091
:1055F800149801008DB30100300100207C1D0020AB
:105608002DE9F04F87B0054616460C4600AF31B974
:10561800FFF7DAFC044648B96FF0680092E0887A30
:10562800FEF7D6FD534B834240F09E8001220021B5
:10563800384612F0BBFE2046FEF7D2FD0C23DFF8F9
:1056480038A103FB00A0876020460FF054FF0146F5
:105658004A4812F092FEFFF737FE13F063FE484BFC
:105668001A58484B9A4220D1DFF81CB1434812F02F
:1056780099FE002181464FF4A020FFF755FF804690
:1056880088B94FF4D8735946404A41480EF0B0FFE4
:10569800294640480EF0ACFF88F31188BFF36F8F9E
:1056A8000323184602DF4C45E0D14FF4A022002323
:1056B800384608F0A5FC804698B14FF4DB73334AAE
:1056C800354933480EF094FF4246294633480EF0D8
:1056D8008FFF002383F31188BFF36F8F03231846CE
:1056E80002DF2046FEF77CFD0C2358431AF80080A1
:1056F800B8F1000F30D06E468AB06A46284BC2F81F
:105708001C80C2E90535274B4FF43251136240F231
:1057180002439384244B254842F8103F10F068F860
:105728002046B546A8F10908FEF7FAFDB8F1090FB9
:105738000FD8DFE808F01C0E0E0B050E0E0E0E1922
:105748006FF00B001C37BD46BDE8F08F6FF00C0002
:10575800F8E76FF00400F5E716B134600020F1E7D0
:105768002046FEF7DDFDF9E76FF01500EAE76FF078
:105778006E00E7E7DC0700207C1D002054010020B4
:1057880008000000B81500206AB40100D7B0010075
:1057980039B1010072B40100CEB3010092B4010026
:1057A800D7B40100C0CA0100050000011498010027
:1057B8000022F0B583B0114640F6034000AFFFF772
:1057C8001FFF0446002840F0A180FFF7DDFB2146BB
:1057D80041F203003A1DFFF713FF0446002840F08A
:1057E80095807A68B04DD16805F17803D1F8010049
:1057F800D1F8051003C31046FEF792FD214641F289
:1058080001003A1DFFF7FCFE044600287ED17868A7
:10581800C3685A7885F870205A88A5F872201A79D2
:1058280085F87120B3F80720A5F87420B3F805307F
:10583800A5F87630FEF774FD214641F202003A1DC4
:10584800FFF7DEFE0446002860D1D7F804C005F152
:105858008006DCF80C20531C41323446186859681D
:10586800083303C493422646F7D16046FEF758FD35
:1058780001F056F90446002848D195F88A309E066A
:1058880010D40221894A8A480FF0A3FF95F87C308A
:1058980058063FD40121874A85480FF09AFF6FF0D8
:1058A800120433E0072140F63340FFF78DFB06462C
:1058B800002800F0EC8007210C300FF04DFE1B2370
:1058C80003700223C0F802408471447004712246B8
:1058D800C370314640F63340FFF792FE0446A8B93C
:1058E800012140F63140FFF76FFB0646002800F023
:1058F800CE8001210C300FF03EFE2246314640F6A4
:105908003140FFF77DFE04460028BFD020460C3703
:10591800BD46F0BD002142F203003A1DFFF770FEBC
:1059280004460028F2D17B68634EDA68D2F8010099
:10593800D2F8051003C61846FEF7F2FC214642F2DB
:1059480002003A1DFFF75CFE04460028DED17C68A1
:10595800E368B3F8012091B249B1D97839B1A5F813
:105968000421DA78114606F1280012F01FFD2046BE
:10597800FEF7D6FC1F2395F87C60A5F8203116F0B9
:10598800200617D1022140F66D40FFF71DFB0446A3
:1059980000287CD002210C300FF0DEFD01232146C7
:1059A80003704670324640F66D40FFF729FE044604
:1059B8000028ABD195F89C30190712D5002142F286
:1059C8001C003A1DFFF71CFE044600289ED178688B
:1059D800C368D3F80120D3F80530C5E93823FEF7AA
:1059E8009FFC082142F20100FFF7EEFA0446002866
:1059F8004DD008210C300FF0AFFD95F8D83095F850
:105A0800D92013F0020F14BF2F230F2312F0090F10
:105A18004FF0000218BF43F4006303701B0A2146CD
:105A280043708270C270027142718271C27142F217
:105A38000100FFF7E5FD044600287FF467AF95F8FD
:105A48007C30B5F804119A0624D4C9B941F205008E
:105A58003A1DFFF7D5FD044600287FF457AFB5F887
:105A680004317C684BB9E368B3F80120A5F8042138
:105A78009A881248114612F099FC2046FEF750FC0D
:105A8800082140F60140FFF79FFA0446D0B96FF0AD
:105A980068043BE70029F3D10121094A04480FF0C3
:105AA80098FE6FF0040431E700000020F6B401000E
:105AB8001498010024B50100D80000200801002036
:105AC80048B5010008210C300FF046FD1023037083
